{
  "_format": "hh-sol-artifact-1",
  "contractName": "Fundly",
  "sourceName": "contracts/Fundly.sol",
  "abi": [
    {
      "inputs": [
        {
          "internalType": "uint256",
          "name": "",
          "type": "uint256"
        }
      ],
      "name": "campaigns",
      "outputs": [
        {
          "internalType": "address",
          "name": "owner",
          "type": "address"
        },
        {
          "internalType": "string",
          "name": "title",
          "type": "string"
        },
        {
          "internalType": "string",
          "name": "description",
          "type": "string"
        },
        {
          "internalType": "uint256",
          "name": "target",
          "type": "uint256"
        },
        {
          "internalType": "uint256",
          "name": "deadline",
          "type": "uint256"
        },
        {
          "internalType": "uint256",
          "name": "amountCollected",
          "type": "uint256"
        },
        {
          "internalType": "string",
          "name": "image",
          "type": "string"
        },
        {
          "internalType": "bool",
          "name": "ended",
          "type": "bool"
        }
      ],
      "stateMutability": "view",
      "type": "function"
    },
    {
      "inputs": [
        {
          "internalType": "address",
          "name": "_owner",
          "type": "address"
        },
        {
          "internalType": "string",
          "name": "_title",
          "type": "string"
        },
        {
          "internalType": "string",
          "name": "_description",
          "type": "string"
        },
        {
          "internalType": "uint256",
          "name": "_target",
          "type": "uint256"
        },
        {
          "internalType": "uint256",
          "name": "_deadline",
          "type": "uint256"
        },
        {
          "internalType": "string",
          "name": "_image",
          "type": "string"
        }
      ],
      "name": "createCampaign",
      "outputs": [
        {
          "internalType": "uint256",
          "name": "",
          "type": "uint256"
        }
      ],
      "stateMutability": "nonpayable",
      "type": "function"
    },
    {
      "inputs": [
        {
          "internalType": "uint256",
          "name": "_id",
          "type": "uint256"
        }
      ],
      "name": "donateToCampaign",
      "outputs": [],
      "stateMutability": "payable",
      "type": "function"
    },
    {
      "inputs": [
        {
          "internalType": "uint256",
          "name": "_id",
          "type": "uint256"
        }
      ],
      "name": "endCampaign",
      "outputs": [],
      "stateMutability": "nonpayable",
      "type": "function"
    },
    {
      "inputs": [],
      "name": "getCampaigns",
      "outputs": [
        {
          "components": [
            {
              "internalType": "address",
              "name": "owner",
              "type": "address"
            },
            {
              "internalType": "string",
              "name": "title",
              "type": "string"
            },
            {
              "internalType": "string",
              "name": "description",
              "type": "string"
            },
            {
              "internalType": "uint256",
              "name": "target",
              "type": "uint256"
            },
            {
              "internalType": "uint256",
              "name": "deadline",
              "type": "uint256"
            },
            {
              "internalType": "uint256",
              "name": "amountCollected",
              "type": "uint256"
            },
            {
              "internalType": "string",
              "name": "image",
              "type": "string"
            },
            {
              "internalType": "address[]",
              "name": "donators",
              "type": "address[]"
            },
            {
              "internalType": "uint256[]",
              "name": "donations",
              "type": "uint256[]"
            },
            {
              "internalType": "bool",
              "name": "ended",
              "type": "bool"
            }
          ],
          "internalType": "struct Fundly.Campaign[]",
          "name": "",
          "type": "tuple[]"
        }
      ],
      "stateMutability": "view",
      "type": "function"
    },
    {
      "inputs": [
        {
          "internalType": "uint256",
          "name": "_id",
          "type": "uint256"
        }
      ],
      "name": "getDonators",
      "outputs": [
        {
          "internalType": "address[]",
          "name": "",
          "type": "address[]"
        },
        {
          "internalType": "uint256[]",
          "name": "",
          "type": "uint256[]"
        }
      ],
      "stateMutability": "view",
      "type": "function"
    },
    {
      "inputs": [],
      "name": "numberOfCampaigns",
      "outputs": [
        {
          "internalType": "uint256",
          "name": "",
          "type": "uint256"
        }
      ],
      "stateMutability": "view",
      "type": "function"
    },
    {
      "inputs": [
        {
          "internalType": "uint256",
          "name": "_id",
          "type": "uint256"
        }
      ],
      "name": "transferDonationsToOwner",
      "outputs": [],
      "stateMutability": "nonpayable",
      "type": "function"
    }
  ],
  "bytecode": "0x6080604052600060015534801561001557600080fd5b50611f61806100256000396000f3fe60806040526004361061007b5760003560e01c806380e784741161004e57806380e78474146101495780639943e3a114610172578063a6b03633146101af578063dd0408ae146101da5761007b565b806307ca140d146100805780630fa91fa9146100ab578063141961bc146100e957806342a4fda81461012d575b600080fd5b34801561008c57600080fd5b50610095610203565b6040516100a2919061108b565b60405180910390f35b3480156100b757600080fd5b506100d260048036038101906100cd91906110e6565b610209565b6040516100e09291906112c1565b60405180910390f35b3480156100f557600080fd5b50610110600480360381019061010b91906110e6565b610319565b6040516101249897969594939291906113bb565b60405180910390f35b610147600480360381019061014291906110e6565b610526565b005b34801561015557600080fd5b50610170600480360381019061016b91906110e6565b6106ec565b005b34801561017e57600080fd5b50610199600480360381019061019491906115af565b6108a9565b6040516101a6919061108b565b60405180910390f35b3480156101bb57600080fd5b506101c46109fe565b6040516101d1919061197f565b60405180910390f35b3480156101e657600080fd5b5061020160048036038101906101fc91906110e6565b610def565b005b60015481565b606080600080848152602001908152602001600020600701600080858152602001908152602001600020600801818054806020026020016040519081016040528092919081815260200182805480156102b757602002820191906000526020600020905b8160009054906101000a900473ffffffffffffffffffffffffffffffffffffffff1673ffffffffffffffffffffffffffffffffffffffff168152602001906001019080831161026d575b505050505091508080548060200260200160405190810160405280929190818152602001828054801561030957602002820191906000526020600020905b8154815260200190600101908083116102f5575b5050505050905091509150915091565b60006020528060005260406000206000915090508060000160009054906101000a900473ffffffffffffffffffffffffffffffffffffffff1690806001018054610362906119d0565b80601f016020809104026020016040519081016040528092919081815260200182805461038e906119d0565b80156103db5780601f106103b0576101008083540402835291602001916103db565b820191906000526020600020905b8154815290600101906020018083116103be57829003601f168201915b5050505050908060020180546103f0906119d0565b80601f016020809104026020016040519081016040528092919081815260200182805461041c906119d0565b80156104695780601f1061043e57610100808354040283529160200191610469565b820191906000526020600020905b81548152906001019060200180831161044c57829003601f168201915b505050505090806003015490806004015490806005015490806006018054610490906119d0565b80601f01602080910402602001604051908101604052809291908181526020018280546104bc906119d0565b80156105095780601f106104de57610100808354040283529160200191610509565b820191906000526020600020905b8154815290600101906020018083116104ec57829003601f168201915b5050505050908060090160009054906101000a900460ff16905088565b60008082815260200190815260200160002060090160009054906101000a900460ff1615610589576040517f08c379a000000000000000000000000000000000000000000000000000000000815260040161058090611a4e565b60405180910390fd5b60003490506000806000848152602001908152602001600020905080600701339080600181540180825580915050600190039060005260206000200160009091909190916101000a81548173ffffffffffffffffffffffffffffffffffffffff021916908373ffffffffffffffffffffffffffffffffffffffff1602179055508060080182908060018154018082558091505060019003906000526020600020016000909190919091505560008160000160009054906101000a900473ffffffffffffffffffffffffffffffffffffffff1673ffffffffffffffffffffffffffffffffffffffff168360405161067e90611a9f565b60006040518083038185875af1925050503d80600081146106bb576040519150601f19603f3d011682016040523d82523d6000602084013e6106c0565b606091505b5050905080156106e657828260050160008282546106de9190611ae3565b925050819055505b50505050565b600080600083815260200190815260200160002090508060090160009054906101000a900460ff16610753576040517f08c379a000000000000000000000000000000000000000000000000000000000815260040161074a90611b85565b60405180910390fd5b8060000160009054906101000a900473ffffffffffffffffffffffffffffffffffffffff1673ffffffffffffffffffffffffffffffffffffffff163373ffffffffffffffffffffffffffffffffffffffff16146107e5576040517f08c379a00000000000000000000000000000000000000000000000000000000081526004016107dc90611c17565b60405180910390fd5b806005015447101561082c576040517f08c379a000000000000000000000000000000000000000000000000000000000815260040161082390611ca9565b60405180910390fd5b8060000160009054906101000a900473ffffffffffffffffffffffffffffffffffffffff1673ffffffffffffffffffffffffffffffffffffffff166108fc82600501549081150290604051600060405180830381858888f1935050505015801561089a573d6000803e3d6000fd5b50600081600501819055505050565b60008060008060015481526020019081526020016000209050428411610904576040517f08c379a00000000000000000000000000000000000000000000000000000000081526004016108fb90611d3b565b60405180910390fd5b878160000160006101000a81548173ffffffffffffffffffffffffffffffffffffffff021916908373ffffffffffffffffffffffffffffffffffffffff1602179055508681600101908051906020019061095f929190610f64565b5084816003018190555085816002019080519060200190610981929190610f64565b5083816004018190555060008160050181905550828160060190805190602001906109ad929190610f64565b5060008160090160006101000a81548160ff021916908315150217905550600160008154809291906109de90611d5b565b9190505550600180546109f19190611da4565b9150509695505050505050565b6060600060015467ffffffffffffffff811115610a1e57610a1d611484565b5b604051908082528060200260200182016040528015610a5757816020015b610a44610fea565b815260200190600190039081610a3c5790505b50905060005b600154811015610de7576000806000838152602001908152602001600020905080604051806101400160405290816000820160009054906101000a900473ffffffffffffffffffffffffffffffffffffffff1673ffffffffffffffffffffffffffffffffffffffff1673ffffffffffffffffffffffffffffffffffffffff168152602001600182018054610af0906119d0565b80601f0160208091040260200160405190810160405280929190818152602001828054610b1c906119d0565b8015610b695780601f10610b3e57610100808354040283529160200191610b69565b820191906000526020600020905b815481529060010190602001808311610b4c57829003601f168201915b50505050508152602001600282018054610b82906119d0565b80601f0160208091040260200160405190810160405280929190818152602001828054610bae906119d0565b8015610bfb5780601f10610bd057610100808354040283529160200191610bfb565b820191906000526020600020905b815481529060010190602001808311610bde57829003601f168201915b50505050508152602001600382015481526020016004820154815260200160058201548152602001600682018054610c32906119d0565b80601f0160208091040260200160405190810160405280929190818152602001828054610c5e906119d0565b8015610cab5780601f10610c8057610100808354040283529160200191610cab565b820191906000526020600020905b815481529060010190602001808311610c8e57829003601f168201915b5050505050815260200160078201805480602002602001604051908101604052809291908181526020018280548015610d3957602002820191906000526020600020905b8160009054906101000a900473ffffffffffffffffffffffffffffffffffffffff1673ffffffffffffffffffffffffffffffffffffffff1681526020019060010190808311610cef575b5050505050815260200160088201805480602002602001604051908101604052809291908181526020018280548015610d9157602002820191906000526020600020905b815481526020019060010190808311610d7d575b505050505081526020016009820160009054906101000a900460ff161515151581525050838381518110610dc857610dc7611dd8565b5b6020026020010181905250508080610ddf90611d5b565b915050610a5d565b508091505090565b8060008082815260200190815260200160002060000160009054906101000a900473ffffffffffffffffffffffffffffffffffffffff1673ffffffffffffffffffffffffffffffffffffffff163373ffffffffffffffffffffffffffffffffffffffff1614610e93576040517f08c379a0000000000000000000000000000000000000000000000000000000008152600401610e8a90611e79565b60405180910390fd5b600080600084815260200190815260200160002090508060090160009054906101000a900460ff1615610efb576040517f08c379a0000000000000000000000000000000000000000000000000000000008152600401610ef290611a4e565b60405180910390fd5b4281600401541115610f42576040517f08c379a0000000000000000000000000000000000000000000000000000000008152600401610f3990611f0b565b60405180910390fd5b60018160090160006101000a81548160ff021916908315150217905550505050565b828054610f70906119d0565b90600052602060002090601f016020900481019282610f925760008555610fd9565b82601f10610fab57805160ff1916838001178555610fd9565b82800160010185558215610fd9579182015b82811115610fd8578251825591602001919060010190610fbd565b5b509050610fe69190611055565b5090565b604051806101400160405280600073ffffffffffffffffffffffffffffffffffffffff16815260200160608152602001606081526020016000815260200160008152602001600081526020016060815260200160608152602001606081526020016000151581525090565b5b8082111561106e576000816000905550600101611056565b5090565b6000819050919050565b61108581611072565b82525050565b60006020820190506110a0600083018461107c565b92915050565b6000604051905090565b600080fd5b600080fd5b6110c381611072565b81146110ce57600080fd5b50565b6000813590506110e0816110ba565b92915050565b6000602082840312156110fc576110fb6110b0565b5b600061110a848285016110d1565b91505092915050565b600081519050919050565b600082825260208201905092915050565b6000819050602082019050919050565b600073ffffffffffffffffffffffffffffffffffffffff82169050919050565b600061116a8261113f565b9050919050565b61117a8161115f565b82525050565b600061118c8383611171565b60208301905092915050565b6000602082019050919050565b60006111b082611113565b6111ba818561111e565b93506111c58361112f565b8060005b838110156111f65781516111dd8882611180565b97506111e883611198565b9250506001810190506111c9565b5085935050505092915050565b600081519050919050565b600082825260208201905092915050565b6000819050602082019050919050565b61123881611072565b82525050565b600061124a838361122f565b60208301905092915050565b6000602082019050919050565b600061126e82611203565b611278818561120e565b93506112838361121f565b8060005b838110156112b457815161129b888261123e565b97506112a683611256565b925050600181019050611287565b5085935050505092915050565b600060408201905081810360008301526112db81856111a5565b905081810360208301526112ef8184611263565b90509392505050565b6113018161115f565b82525050565b600081519050919050565b600082825260208201905092915050565b60005b83811015611341578082015181840152602081019050611326565b83811115611350576000848401525b50505050565b6000601f19601f8301169050919050565b600061137282611307565b61137c8185611312565b935061138c818560208601611323565b61139581611356565b840191505092915050565b60008115159050919050565b6113b5816113a0565b82525050565b6000610100820190506113d1600083018b6112f8565b81810360208301526113e3818a611367565b905081810360408301526113f78189611367565b9050611406606083018861107c565b611413608083018761107c565b61142060a083018661107c565b81810360c08301526114328185611367565b905061144160e08301846113ac565b9998505050505050505050565b6114578161115f565b811461146257600080fd5b50565b6000813590506114748161144e565b92915050565b600080fd5b600080fd5b7f4e487b7100000000000000000000000000000000000000000000000000000000600052604160045260246000fd5b6114bc82611356565b810181811067ffffffffffffffff821117156114db576114da611484565b5b80604052505050565b60006114ee6110a6565b90506114fa82826114b3565b919050565b600067ffffffffffffffff82111561151a57611519611484565b5b61152382611356565b9050602081019050919050565b82818337600083830152505050565b600061155261154d846114ff565b6114e4565b90508281526020810184848401111561156e5761156d61147f565b5b611579848285611530565b509392505050565b600082601f8301126115965761159561147a565b5b81356115a684826020860161153f565b91505092915050565b60008060008060008060c087890312156115cc576115cb6110b0565b5b60006115da89828a01611465565b965050602087013567ffffffffffffffff8111156115fb576115fa6110b5565b5b61160789828a01611581565b955050604087013567ffffffffffffffff811115611628576116276110b5565b5b61163489828a01611581565b945050606061164589828a016110d1565b935050608061165689828a016110d1565b92505060a087013567ffffffffffffffff811115611677576116766110b5565b5b61168389828a01611581565b9150509295509295509295565b600081519050919050565b600082825260208201905092915050565b6000819050602082019050919050565b600082825260208201905092915050565b60006116d882611307565b6116e281856116bc565b93506116f2818560208601611323565b6116fb81611356565b840191505092915050565b600082825260208201905092915050565b600061172282611113565b61172c8185611706565b93506117378361112f565b8060005b8381101561176857815161174f8882611180565b975061175a83611198565b92505060018101905061173b565b5085935050505092915050565b600082825260208201905092915050565b600061179182611203565b61179b8185611775565b93506117a68361121f565b8060005b838110156117d75781516117be888261123e565b97506117c983611256565b9250506001810190506117aa565b5085935050505092915050565b6117ed816113a0565b82525050565b60006101408301600083015161180c6000860182611171565b506020830151848203602086015261182482826116cd565b9150506040830151848203604086015261183e82826116cd565b9150506060830151611853606086018261122f565b506080830151611866608086018261122f565b5060a083015161187960a086018261122f565b5060c083015184820360c086015261189182826116cd565b91505060e083015184820360e08601526118ab8282611717565b9150506101008301518482036101008601526118c78282611786565b9150506101208301516118de6101208601826117e4565b508091505092915050565b60006118f583836117f3565b905092915050565b6000602082019050919050565b600061191582611690565b61191f818561169b565b935083602082028501611931856116ac565b8060005b8581101561196d578484038952815161194e85826118e9565b9450611959836118fd565b925060208a01995050600181019050611935565b50829750879550505050505092915050565b60006020820190508181036000830152611999818461190a565b905092915050565b7f4e487b7100000000000000000000000000000000000000000000000000000000600052602260045260246000fd5b600060028204905060018216806119e857607f821691505b602082108114156119fc576119fb6119a1565b5b50919050565b7f43616d706169676e2068617320616c726561647920656e6465642e0000000000600082015250565b6000611a38601b83611312565b9150611a4382611a02565b602082019050919050565b60006020820190508181036000830152611a6781611a2b565b9050919050565b600081905092915050565b50565b6000611a89600083611a6e565b9150611a9482611a79565b600082019050919050565b6000611aaa82611a7c565b9150819050919050565b7f4e487b7100000000000000000000000000000000000000000000000000000000600052601160045260246000fd5b6000611aee82611072565b9150611af983611072565b9250827fffffffffffffffffffffffffffffffffffffffffffffffffffffffffffffffff03821115611b2e57611b2d611ab4565b5b828201905092915050565b7f43616d706169676e20686173206e6f7420656e646564207965742e0000000000600082015250565b6000611b6f601b83611312565b9150611b7a82611b39565b602082019050919050565b60006020820190508181036000830152611b9e81611b62565b9050919050565b7f4f6e6c79207468652063616d706169676e206f776e65722063616e207472616e60008201527f7366657220646f6e6174696f6e732e0000000000000000000000000000000000602082015250565b6000611c01602f83611312565b9150611c0c82611ba5565b604082019050919050565b60006020820190508181036000830152611c3081611bf4565b9050919050565b7f436f6e74726163742062616c616e636520697320696e73756666696369656e7460008201527f2e00000000000000000000000000000000000000000000000000000000000000602082015250565b6000611c93602183611312565b9150611c9e82611c37565b604082019050919050565b60006020820190508181036000830152611cc281611c86565b9050919050565b7f54686520646561646c696e652073686f756c642062652061206461746520696e60008201527f20746865206675747572652e0000000000000000000000000000000000000000602082015250565b6000611d25602c83611312565b9150611d3082611cc9565b604082019050919050565b60006020820190508181036000830152611d5481611d18565b9050919050565b6000611d6682611072565b91507fffffffffffffffffffffffffffffffffffffffffffffffffffffffffffffffff821415611d9957611d98611ab4565b5b600182019050919050565b6000611daf82611072565b9150611dba83611072565b925082821015611dcd57611dcc611ab4565b5b828203905092915050565b7f4e487b7100000000000000000000000000000000000000000000000000000000600052603260045260246000fd5b7f4f6e6c79207468652063616d706169676e206f776e65722063616e2063616c6c60008201527f20746869732066756e6374696f6e2e0000000000000000000000000000000000602082015250565b6000611e63602f83611312565b9150611e6e82611e07565b604082019050919050565b60006020820190508181036000830152611e9281611e56565b9050919050565b7f43616d706169676e20646561646c696e6520686173206e6f74206265656e207260008201527f656163686564207965742e000000000000000000000000000000000000000000602082015250565b6000611ef5602b83611312565b9150611f0082611e99565b604082019050919050565b60006020820190508181036000830152611f2481611ee8565b905091905056fea2646970667358221220167f3fb5bdde16c0aeefb0a14fb5b162399db5b2306b867b9fffb758c6e88aaf64736f6c634300080b0033",
  "linkReferences": {},
  "deployedLinkReferences": {}
}