{
  "_format": "hh-sol-artifact-1",
  "contractName": "Fundly",
  "sourceName": "contracts/Fundly.sol",
  "abi": [
    {
      "inputs": [
        {
          "internalType": "uint256",
          "name": "",
          "type": "uint256"
        }
      ],
      "name": "campaigns",
      "outputs": [
        {
          "internalType": "address",
          "name": "owner",
          "type": "address"
        },
        {
          "internalType": "string",
          "name": "title",
          "type": "string"
        },
        {
          "internalType": "string",
          "name": "description",
          "type": "string"
        },
        {
          "internalType": "uint256",
          "name": "target",
          "type": "uint256"
        },
        {
          "internalType": "uint256",
          "name": "deadline",
          "type": "uint256"
        },
        {
          "internalType": "uint256",
          "name": "amountCollected",
          "type": "uint256"
        },
        {
          "internalType": "string",
          "name": "image",
          "type": "string"
        },
        {
          "internalType": "bool",
          "name": "paidOut",
          "type": "bool"
        }
      ],
      "stateMutability": "view",
      "type": "function"
    },
    {
      "inputs": [
        {
          "internalType": "address",
          "name": "_owner",
          "type": "address"
        },
        {
          "internalType": "string",
          "name": "_title",
          "type": "string"
        },
        {
          "internalType": "string",
          "name": "_description",
          "type": "string"
        },
        {
          "internalType": "uint256",
          "name": "_target",
          "type": "uint256"
        },
        {
          "internalType": "uint256",
          "name": "_deadline",
          "type": "uint256"
        },
        {
          "internalType": "string",
          "name": "_image",
          "type": "string"
        }
      ],
      "name": "createCampaign",
      "outputs": [
        {
          "internalType": "uint256",
          "name": "",
          "type": "uint256"
        }
      ],
      "stateMutability": "nonpayable",
      "type": "function"
    },
    {
      "inputs": [
        {
          "internalType": "uint256",
          "name": "_id",
          "type": "uint256"
        }
      ],
      "name": "donateCampaign",
      "outputs": [],
      "stateMutability": "payable",
      "type": "function"
    },
    {
      "inputs": [],
      "name": "getCampaigns",
      "outputs": [
        {
          "components": [
            {
              "internalType": "address",
              "name": "owner",
              "type": "address"
            },
            {
              "internalType": "string",
              "name": "title",
              "type": "string"
            },
            {
              "internalType": "string",
              "name": "description",
              "type": "string"
            },
            {
              "internalType": "uint256",
              "name": "target",
              "type": "uint256"
            },
            {
              "internalType": "uint256",
              "name": "deadline",
              "type": "uint256"
            },
            {
              "internalType": "uint256",
              "name": "amountCollected",
              "type": "uint256"
            },
            {
              "internalType": "string",
              "name": "image",
              "type": "string"
            },
            {
              "internalType": "bool",
              "name": "paidOut",
              "type": "bool"
            },
            {
              "internalType": "address[]",
              "name": "donators",
              "type": "address[]"
            },
            {
              "internalType": "uint256[]",
              "name": "donations",
              "type": "uint256[]"
            }
          ],
          "internalType": "struct Fundly.Campaign[]",
          "name": "",
          "type": "tuple[]"
        }
      ],
      "stateMutability": "view",
      "type": "function"
    },
    {
      "inputs": [
        {
          "internalType": "uint256",
          "name": "_id",
          "type": "uint256"
        }
      ],
      "name": "getDonators",
      "outputs": [
        {
          "internalType": "address[]",
          "name": "",
          "type": "address[]"
        },
        {
          "internalType": "uint256[]",
          "name": "",
          "type": "uint256[]"
        }
      ],
      "stateMutability": "view",
      "type": "function"
    },
    {
      "inputs": [],
      "name": "numberOfCampaigns",
      "outputs": [
        {
          "internalType": "uint256",
          "name": "",
          "type": "uint256"
        }
      ],
      "stateMutability": "view",
      "type": "function"
    },
    {
      "inputs": [
        {
          "internalType": "uint256",
          "name": "_id",
          "type": "uint256"
        }
      ],
      "name": "payout",
      "outputs": [],
      "stateMutability": "nonpayable",
      "type": "function"
    }
  ],
  "bytecode": "0x60806040526000600155348015601457600080fd5b50611d95806100246000396000f3fe6080604052600436106100705760003560e01c80638ffff8b01161004e5780638ffff8b0146101225780639943e3a11461013e578063a6b036331461017b578063e1152343146101a657610070565b806307ca140d146100755780630fa91fa9146100a0578063141961bc146100de575b600080fd5b34801561008157600080fd5b5061008a6101cf565b6040516100979190610d92565b60405180910390f35b3480156100ac57600080fd5b506100c760048036038101906100c29190610ded565b6101d5565b6040516100d5929190610fc8565b60405180910390f35b3480156100ea57600080fd5b5061010560048036038101906101009190610ded565b6102e5565b6040516101199897969594939291906110b9565b60405180910390f35b61013c60048036038101906101379190610ded565b6104f2565b005b34801561014a57600080fd5b50610165600480360381019061016091906112ad565b6105bd565b6040516101729190610d92565b60405180910390f35b34801561018757600080fd5b506101906106e0565b60405161019d919061167d565b60405180910390f35b3480156101b257600080fd5b506101cd60048036038101906101c89190610ded565b610acb565b005b60015481565b6060806000808481526020019081526020016000206008016000808581526020019081526020016000206009018180548060200260200160405190810160405280929190818152602001828054801561028357602002820191906000526020600020905b8160009054906101000a900473ffffffffffffffffffffffffffffffffffffffff1673ffffffffffffffffffffffffffffffffffffffff1681526020019060010190808311610239575b50505050509150808054806020026020016040519081016040528092919081815260200182805480156102d557602002820191906000526020600020905b8154815260200190600101908083116102c1575b5050505050905091509150915091565b60006020528060005260406000206000915090508060000160009054906101000a900473ffffffffffffffffffffffffffffffffffffffff169080600101805461032e906116ce565b80601f016020809104026020016040519081016040528092919081815260200182805461035a906116ce565b80156103a75780601f1061037c576101008083540402835291602001916103a7565b820191906000526020600020905b81548152906001019060200180831161038a57829003601f168201915b5050505050908060020180546103bc906116ce565b80601f01602080910402602001604051908101604052809291908181526020018280546103e8906116ce565b80156104355780601f1061040a57610100808354040283529160200191610435565b820191906000526020600020905b81548152906001019060200180831161041857829003601f168201915b50505050509080600301549080600401549080600501549080600601805461045c906116ce565b80601f0160208091040260200160405190810160405280929190818152602001828054610488906116ce565b80156104d55780601f106104aa576101008083540402835291602001916104d5565b820191906000526020600020905b8154815290600101906020018083116104b857829003601f168201915b5050505050908060070160009054906101000a900460ff16905088565b60003490506000806000848152602001908152602001600020905080600801339080600181540180825580915050600190039060005260206000200160009091909190916101000a81548173ffffffffffffffffffffffffffffffffffffffff021916908373ffffffffffffffffffffffffffffffffffffffff16021790555080600901829080600181540180825580915050600190039060005260206000200160009091909190915055818160050160008282546105b1919061172e565b92505081905550505050565b60008060008060015481526020019081526020016000209050428411610618576040517f08c379a000000000000000000000000000000000000000000000000000000000815260040161060f906117d4565b60405180910390fd5b878160000160006101000a81548173ffffffffffffffffffffffffffffffffffffffff021916908373ffffffffffffffffffffffffffffffffffffffff1602179055508681600101908161066c91906119a0565b508581600201908161067e91906119a0565b5084816003018190555083816004018190555060008160050181905550828160060190816106ac91906119a0565b50600160008154809291906106c090611a72565b9190505550600180546106d39190611aba565b9150509695505050505050565b6060600060015467ffffffffffffffff811115610700576106ff611182565b5b60405190808252806020026020018201604052801561073957816020015b610726610d0e565b81526020019060019003908161071e5790505b50905060005b600154811015610ac3576000806000838152602001908152602001600020905080604051806101400160405290816000820160009054906101000a900473ffffffffffffffffffffffffffffffffffffffff1673ffffffffffffffffffffffffffffffffffffffff1673ffffffffffffffffffffffffffffffffffffffff1681526020016001820180546107d2906116ce565b80601f01602080910402602001604051908101604052809291908181526020018280546107fe906116ce565b801561084b5780601f106108205761010080835404028352916020019161084b565b820191906000526020600020905b81548152906001019060200180831161082e57829003601f168201915b50505050508152602001600282018054610864906116ce565b80601f0160208091040260200160405190810160405280929190818152602001828054610890906116ce565b80156108dd5780601f106108b2576101008083540402835291602001916108dd565b820191906000526020600020905b8154815290600101906020018083116108c057829003601f168201915b50505050508152602001600382015481526020016004820154815260200160058201548152602001600682018054610914906116ce565b80601f0160208091040260200160405190810160405280929190818152602001828054610940906116ce565b801561098d5780601f106109625761010080835404028352916020019161098d565b820191906000526020600020905b81548152906001019060200180831161097057829003601f168201915b505050505081526020016007820160009054906101000a900460ff1615151515815260200160088201805480602002602001604051908101604052809291908181526020018280548015610a3657602002820191906000526020600020905b8160009054906101000a900473ffffffffffffffffffffffffffffffffffffffff1673ffffffffffffffffffffffffffffffffffffffff16815260200190600101908083116109ec575b5050505050815260200160098201805480602002602001604051908101604052809291908181526020018280548015610a8e57602002820191906000526020600020905b815481526020019060010190808311610a7a575b505050505081525050838381518110610aaa57610aa9611aee565b5b602002602001018190525050808060010191505061073f565b508091505090565b600080600083815260200190815260200160002090508060000160009054906101000a900473ffffffffffffffffffffffffffffffffffffffff1673ffffffffffffffffffffffffffffffffffffffff163373ffffffffffffffffffffffffffffffffffffffff1614610b73576040517f08c379a0000000000000000000000000000000000000000000000000000000008152600401610b6a90611b8f565b60405180910390fd5b8060070160009054906101000a900460ff1615610bc5576040517f08c379a0000000000000000000000000000000000000000000000000000000008152600401610bbc90611bfb565b60405180910390fd5b60008160050154905060008111610c11576040517f08c379a0000000000000000000000000000000000000000000000000000000008152600401610c0890611c67565b60405180910390fd5b6000826005018190555060018260070160006101000a81548160ff02191690831515021790555060008260000160009054906101000a900473ffffffffffffffffffffffffffffffffffffffff1673ffffffffffffffffffffffffffffffffffffffff1682604051610c8290611cb8565b60006040518083038185875af1925050503d8060008114610cbf576040519150601f19603f3d011682016040523d82523d6000602084013e610cc4565b606091505b5050905080610d08576040517f08c379a0000000000000000000000000000000000000000000000000000000008152600401610cff90611d3f565b60405180910390fd5b50505050565b604051806101400160405280600073ffffffffffffffffffffffffffffffffffffffff16815260200160608152602001606081526020016000815260200160008152602001600081526020016060815260200160001515815260200160608152602001606081525090565b6000819050919050565b610d8c81610d79565b82525050565b6000602082019050610da76000830184610d83565b92915050565b6000604051905090565b600080fd5b600080fd5b610dca81610d79565b8114610dd557600080fd5b50565b600081359050610de781610dc1565b92915050565b600060208284031215610e0357610e02610db7565b5b6000610e1184828501610dd8565b91505092915050565b600081519050919050565b600082825260208201905092915050565b6000819050602082019050919050565b600073ffffffffffffffffffffffffffffffffffffffff82169050919050565b6000610e7182610e46565b9050919050565b610e8181610e66565b82525050565b6000610e938383610e78565b60208301905092915050565b6000602082019050919050565b6000610eb782610e1a565b610ec18185610e25565b9350610ecc83610e36565b8060005b83811015610efd578151610ee48882610e87565b9750610eef83610e9f565b925050600181019050610ed0565b5085935050505092915050565b600081519050919050565b600082825260208201905092915050565b6000819050602082019050919050565b610f3f81610d79565b82525050565b6000610f518383610f36565b60208301905092915050565b6000602082019050919050565b6000610f7582610f0a565b610f7f8185610f15565b9350610f8a83610f26565b8060005b83811015610fbb578151610fa28882610f45565b9750610fad83610f5d565b925050600181019050610f8e565b5085935050505092915050565b60006040820190508181036000830152610fe28185610eac565b90508181036020830152610ff68184610f6a565b90509392505050565b61100881610e66565b82525050565b600081519050919050565b600082825260208201905092915050565b60005b8381101561104857808201518184015260208101905061102d565b60008484015250505050565b6000601f19601f8301169050919050565b60006110708261100e565b61107a8185611019565b935061108a81856020860161102a565b61109381611054565b840191505092915050565b60008115159050919050565b6110b38161109e565b82525050565b6000610100820190506110cf600083018b610fff565b81810360208301526110e1818a611065565b905081810360408301526110f58189611065565b90506111046060830188610d83565b6111116080830187610d83565b61111e60a0830186610d83565b81810360c08301526111308185611065565b905061113f60e08301846110aa565b9998505050505050505050565b61115581610e66565b811461116057600080fd5b50565b6000813590506111728161114c565b92915050565b600080fd5b600080fd5b7f4e487b7100000000000000000000000000000000000000000000000000000000600052604160045260246000fd5b6111ba82611054565b810181811067ffffffffffffffff821117156111d9576111d8611182565b5b80604052505050565b60006111ec610dad565b90506111f882826111b1565b919050565b600067ffffffffffffffff82111561121857611217611182565b5b61122182611054565b9050602081019050919050565b82818337600083830152505050565b600061125061124b846111fd565b6111e2565b90508281526020810184848401111561126c5761126b61117d565b5b61127784828561122e565b509392505050565b600082601f83011261129457611293611178565b5b81356112a484826020860161123d565b91505092915050565b60008060008060008060c087890312156112ca576112c9610db7565b5b60006112d889828a01611163565b965050602087013567ffffffffffffffff8111156112f9576112f8610dbc565b5b61130589828a0161127f565b955050604087013567ffffffffffffffff81111561132657611325610dbc565b5b61133289828a0161127f565b945050606061134389828a01610dd8565b935050608061135489828a01610dd8565b92505060a087013567ffffffffffffffff81111561137557611374610dbc565b5b61138189828a0161127f565b9150509295509295509295565b600081519050919050565b600082825260208201905092915050565b6000819050602082019050919050565b600082825260208201905092915050565b60006113d68261100e565b6113e081856113ba565b93506113f081856020860161102a565b6113f981611054565b840191505092915050565b61140d8161109e565b82525050565b600082825260208201905092915050565b600061142f82610e1a565b6114398185611413565b935061144483610e36565b8060005b8381101561147557815161145c8882610e87565b975061146783610e9f565b925050600181019050611448565b5085935050505092915050565b600082825260208201905092915050565b600061149e82610f0a565b6114a88185611482565b93506114b383610f26565b8060005b838110156114e45781516114cb8882610f45565b97506114d683610f5d565b9250506001810190506114b7565b5085935050505092915050565b60006101408301600083015161150a6000860182610e78565b506020830151848203602086015261152282826113cb565b9150506040830151848203604086015261153c82826113cb565b91505060608301516115516060860182610f36565b5060808301516115646080860182610f36565b5060a083015161157760a0860182610f36565b5060c083015184820360c086015261158f82826113cb565b91505060e08301516115a460e0860182611404565b506101008301518482036101008601526115be8282611424565b9150506101208301518482036101208601526115da8282611493565b9150508091505092915050565b60006115f383836114f1565b905092915050565b6000602082019050919050565b60006116138261138e565b61161d8185611399565b93508360208202850161162f856113aa565b8060005b8581101561166b578484038952815161164c85826115e7565b9450611657836115fb565b925060208a01995050600181019050611633565b50829750879550505050505092915050565b600060208201905081810360008301526116978184611608565b905092915050565b7f4e487b7100000000000000000000000000000000000000000000000000000000600052602260045260246000fd5b600060028204905060018216806116e657607f821691505b6020821081036116f9576116f861169f565b5b50919050565b7f4e487b7100000000000000000000000000000000000000000000000000000000600052601160045260246000fd5b600061173982610d79565b915061174483610d79565b925082820190508082111561175c5761175b6116ff565b5b92915050565b7f54686520646561646c696e652073686f756c642062652061206461746520696e60008201527f20746865206675747572652e0000000000000000000000000000000000000000602082015250565b60006117be602c83611019565b91506117c982611762565b604082019050919050565b600060208201905081810360008301526117ed816117b1565b9050919050565b60008190508160005260206000209050919050565b60006020601f8301049050919050565b600082821b905092915050565b6000600883026118567fffffffffffffffffffffffffffffffffffffffffffffffffffffffffffffffff82611819565b6118608683611819565b95508019841693508086168417925050509392505050565b6000819050919050565b600061189d61189861189384610d79565b611878565b610d79565b9050919050565b6000819050919050565b6118b783611882565b6118cb6118c3826118a4565b848454611826565b825550505050565b600090565b6118e06118d3565b6118eb8184846118ae565b505050565b5b8181101561190f576119046000826118d8565b6001810190506118f1565b5050565b601f82111561195457611925816117f4565b61192e84611809565b8101602085101561193d578190505b61195161194985611809565b8301826118f0565b50505b505050565b600082821c905092915050565b600061197760001984600802611959565b1980831691505092915050565b60006119908383611966565b9150826002028217905092915050565b6119a98261100e565b67ffffffffffffffff8111156119c2576119c1611182565b5b6119cc82546116ce565b6119d7828285611913565b600060209050601f831160018114611a0a57600084156119f8578287015190505b611a028582611984565b865550611a6a565b601f198416611a18866117f4565b60005b82811015611a4057848901518255600182019150602085019450602081019050611a1b565b86831015611a5d5784890151611a59601f891682611966565b8355505b6001600288020188555050505b505050505050565b6000611a7d82610d79565b91507fffffffffffffffffffffffffffffffffffffffffffffffffffffffffffffffff8203611aaf57611aae6116ff565b5b600182019050919050565b6000611ac582610d79565b9150611ad083610d79565b9250828203905081811115611ae857611ae76116ff565b5b92915050565b7f4e487b7100000000000000000000000000000000000000000000000000000000600052603260045260246000fd5b7f4f6e6c79207468652063616d706169676e206f776e65722063616e207769746860008201527f647261772066756e647300000000000000000000000000000000000000000000602082015250565b6000611b79602a83611019565b9150611b8482611b1d565b604082019050919050565b60006020820190508181036000830152611ba881611b6c565b9050919050565b7f46756e647320616c72656164792077697468647261776e000000000000000000600082015250565b6000611be5601783611019565b9150611bf082611baf565b602082019050919050565b60006020820190508181036000830152611c1481611bd8565b9050919050565b7f4e6f2066756e647320746f207769746864726177000000000000000000000000600082015250565b6000611c51601483611019565b9150611c5c82611c1b565b602082019050919050565b60006020820190508181036000830152611c8081611c44565b9050919050565b600081905092915050565b50565b6000611ca2600083611c87565b9150611cad82611c92565b600082019050919050565b6000611cc382611c95565b9150819050919050565b7f4661696c656420746f2073656e642066756e647320746f207468652063616d7060008201527f6169676e206f776e657200000000000000000000000000000000000000000000602082015250565b6000611d29602a83611019565b9150611d3482611ccd565b604082019050919050565b60006020820190508181036000830152611d5881611d1c565b905091905056fea2646970667358221220a6fb2d9b2b0d9fd467be956e45bedd7b9bfdf791636095aa7acd162b4800acf564736f6c634300081a0033",
  "linkReferences": {},
  "deployedLinkReferences": {}
}