{
  "_format": "hh-sol-artifact-1",
  "contractName": "Fundly",
  "sourceName": "contracts/Fundly.sol",
  "abi": [
    {
      "inputs": [
        {
          "internalType": "uint256",
          "name": "",
          "type": "uint256"
        }
      ],
      "name": "campaigns",
      "outputs": [
        {
          "internalType": "address",
          "name": "owner",
          "type": "address"
        },
        {
          "internalType": "string",
          "name": "title",
          "type": "string"
        },
        {
          "internalType": "string",
          "name": "description",
          "type": "string"
        },
        {
          "internalType": "uint256",
          "name": "target",
          "type": "uint256"
        },
        {
          "internalType": "uint256",
          "name": "deadline",
          "type": "uint256"
        },
        {
          "internalType": "uint256",
          "name": "amountCollected",
          "type": "uint256"
        },
        {
          "internalType": "string",
          "name": "image",
          "type": "string"
        }
      ],
      "stateMutability": "view",
      "type": "function"
    },
    {
      "inputs": [
        {
          "internalType": "address",
          "name": "_owner",
          "type": "address"
        },
        {
          "internalType": "string",
          "name": "_title",
          "type": "string"
        },
        {
          "internalType": "string",
          "name": "_description",
          "type": "string"
        },
        {
          "internalType": "uint256",
          "name": "_target",
          "type": "uint256"
        },
        {
          "internalType": "uint256",
          "name": "_deadline",
          "type": "uint256"
        },
        {
          "internalType": "string",
          "name": "_image",
          "type": "string"
        }
      ],
      "name": "createCampaign",
      "outputs": [
        {
          "internalType": "uint256",
          "name": "",
          "type": "uint256"
        }
      ],
      "stateMutability": "nonpayable",
      "type": "function"
    },
    {
      "inputs": [
        {
          "internalType": "uint256",
          "name": "_id",
          "type": "uint256"
        }
      ],
      "name": "donateCampaign",
      "outputs": [],
      "stateMutability": "payable",
      "type": "function"
    },
    {
      "inputs": [],
      "name": "getCampaigns",
      "outputs": [
        {
          "components": [
            {
              "internalType": "address",
              "name": "owner",
              "type": "address"
            },
            {
              "internalType": "string",
              "name": "title",
              "type": "string"
            },
            {
              "internalType": "string",
              "name": "description",
              "type": "string"
            },
            {
              "internalType": "uint256",
              "name": "target",
              "type": "uint256"
            },
            {
              "internalType": "uint256",
              "name": "deadline",
              "type": "uint256"
            },
            {
              "internalType": "uint256",
              "name": "amountCollected",
              "type": "uint256"
            },
            {
              "internalType": "string",
              "name": "image",
              "type": "string"
            },
            {
              "internalType": "address[]",
              "name": "donators",
              "type": "address[]"
            },
            {
              "internalType": "uint256[]",
              "name": "donations",
              "type": "uint256[]"
            }
          ],
          "internalType": "struct Fundly.Campaign[]",
          "name": "",
          "type": "tuple[]"
        }
      ],
      "stateMutability": "view",
      "type": "function"
    },
    {
      "inputs": [
        {
          "internalType": "uint256",
          "name": "_id",
          "type": "uint256"
        }
      ],
      "name": "getDonators",
      "outputs": [
        {
          "internalType": "address[]",
          "name": "",
          "type": "address[]"
        },
        {
          "internalType": "uint256[]",
          "name": "",
          "type": "uint256[]"
        }
      ],
      "stateMutability": "view",
      "type": "function"
    },
    {
      "inputs": [],
      "name": "numberOfCampaigns",
      "outputs": [
        {
          "internalType": "uint256",
          "name": "",
          "type": "uint256"
        }
      ],
      "stateMutability": "view",
      "type": "function"
    },
    {
      "inputs": [
        {
          "internalType": "uint256",
          "name": "_id",
          "type": "uint256"
        }
      ],
      "name": "payout",
      "outputs": [],
      "stateMutability": "nonpayable",
      "type": "function"
    }
  ],
  "bytecode": "0x6080604052600060015534801561001557600080fd5b50611b5c806100256000396000f3fe6080604052600436106100705760003560e01c80638ffff8b01161004e5780638ffff8b0146101215780639943e3a11461013d578063a6b036331461017a578063e1152343146101a557610070565b806307ca140d146100755780630fa91fa9146100a0578063141961bc146100de575b600080fd5b34801561008157600080fd5b5061008a6101ce565b6040516100979190610df8565b60405180910390f35b3480156100ac57600080fd5b506100c760048036038101906100c29190610e53565b6101d4565b6040516100d592919061102e565b60405180910390f35b3480156100ea57600080fd5b5061010560048036038101906101009190610e53565b6102e4565b604051610118979695949392919061110d565b60405180910390f35b61013b60048036038101906101369190610e53565b6104de565b005b34801561014957600080fd5b50610164600480360381019061015f91906112f2565b6105a9565b6040516101719190610df8565b60405180910390f35b34801561018657600080fd5b5061018f6106e1565b60405161019c919061169e565b60405180910390f35b3480156101b157600080fd5b506101cc60048036038101906101c79190610e53565b610ab7565b005b60015481565b6060806000808481526020019081526020016000206007016000808581526020019081526020016000206008018180548060200260200160405190810160405280929190818152602001828054801561028257602002820191906000526020600020905b8160009054906101000a900473ffffffffffffffffffffffffffffffffffffffff1673ffffffffffffffffffffffffffffffffffffffff1681526020019060010190808311610238575b50505050509150808054806020026020016040519081016040528092919081815260200182805480156102d457602002820191906000526020600020905b8154815260200190600101908083116102c0575b5050505050905091509150915091565b60006020528060005260406000206000915090508060000160009054906101000a900473ffffffffffffffffffffffffffffffffffffffff169080600101805461032d906116ef565b80601f0160208091040260200160405190810160405280929190818152602001828054610359906116ef565b80156103a65780601f1061037b576101008083540402835291602001916103a6565b820191906000526020600020905b81548152906001019060200180831161038957829003601f168201915b5050505050908060020180546103bb906116ef565b80601f01602080910402602001604051908101604052809291908181526020018280546103e7906116ef565b80156104345780601f1061040957610100808354040283529160200191610434565b820191906000526020600020905b81548152906001019060200180831161041757829003601f168201915b50505050509080600301549080600401549080600501549080600601805461045b906116ef565b80601f0160208091040260200160405190810160405280929190818152602001828054610487906116ef565b80156104d45780601f106104a9576101008083540402835291602001916104d4565b820191906000526020600020905b8154815290600101906020018083116104b757829003601f168201915b5050505050905087565b60003490506000806000848152602001908152602001600020905080600701339080600181540180825580915050600190039060005260206000200160009091909190916101000a81548173ffffffffffffffffffffffffffffffffffffffff021916908373ffffffffffffffffffffffffffffffffffffffff160217905550806008018290806001815401808255809150506001900390600052602060002001600090919091909150558181600501600082825461059d9190611750565b92505081905550505050565b60008060008060015481526020019081526020016000209050428411610604576040517f08c379a00000000000000000000000000000000000000000000000000000000081526004016105fb90611818565b60405180910390fd5b878160000160006101000a81548173ffffffffffffffffffffffffffffffffffffffff021916908373ffffffffffffffffffffffffffffffffffffffff1602179055508681600101908051906020019061065f929190610cda565b5085816002019080519060200190610678929190610cda565b5084816003018190555083816004018190555060008160050181905550828160060190805190602001906106ad929190610cda565b50600160008154809291906106c190611838565b9190505550600180546106d49190611881565b9150509695505050505050565b6060600060015467ffffffffffffffff811115610701576107006111c7565b5b60405190808252806020026020018201604052801561073a57816020015b610727610d60565b81526020019060019003908161071f5790505b50905060005b600154811015610aaf576000806000838152602001908152602001600020905080604051806101200160405290816000820160009054906101000a900473ffffffffffffffffffffffffffffffffffffffff1673ffffffffffffffffffffffffffffffffffffffff1673ffffffffffffffffffffffffffffffffffffffff1681526020016001820180546107d3906116ef565b80601f01602080910402602001604051908101604052809291908181526020018280546107ff906116ef565b801561084c5780601f106108215761010080835404028352916020019161084c565b820191906000526020600020905b81548152906001019060200180831161082f57829003601f168201915b50505050508152602001600282018054610865906116ef565b80601f0160208091040260200160405190810160405280929190818152602001828054610891906116ef565b80156108de5780601f106108b3576101008083540402835291602001916108de565b820191906000526020600020905b8154815290600101906020018083116108c157829003601f168201915b50505050508152602001600382015481526020016004820154815260200160058201548152602001600682018054610915906116ef565b80601f0160208091040260200160405190810160405280929190818152602001828054610941906116ef565b801561098e5780601f106109635761010080835404028352916020019161098e565b820191906000526020600020905b81548152906001019060200180831161097157829003601f168201915b5050505050815260200160078201805480602002602001604051908101604052809291908181526020018280548015610a1c57602002820191906000526020600020905b8160009054906101000a900473ffffffffffffffffffffffffffffffffffffffff1673ffffffffffffffffffffffffffffffffffffffff16815260200190600101908083116109d2575b5050505050815260200160088201805480602002602001604051908101604052809291908181526020018280548015610a7457602002820191906000526020600020905b815481526020019060010190808311610a60575b505050505081525050838381518110610a9057610a8f6118b5565b5b6020026020010181905250508080610aa790611838565b915050610740565b508091505090565b600080600083815260200190815260200160002090508060000160009054906101000a900473ffffffffffffffffffffffffffffffffffffffff1673ffffffffffffffffffffffffffffffffffffffff163373ffffffffffffffffffffffffffffffffffffffff1614610b5f576040517f08c379a0000000000000000000000000000000000000000000000000000000008152600401610b5690611956565b60405180910390fd5b8060040154421015610ba6576040517f08c379a0000000000000000000000000000000000000000000000000000000008152600401610b9d906119c2565b60405180910390fd5b806003015481600501541015610bf1576040517f08c379a0000000000000000000000000000000000000000000000000000000008152600401610be890611a2e565b60405180910390fd5b6000816005015490506000826005018190555060008260000160009054906101000a900473ffffffffffffffffffffffffffffffffffffffff1673ffffffffffffffffffffffffffffffffffffffff1682604051610c4e90611a7f565b60006040518083038185875af1925050503d8060008114610c8b576040519150601f19603f3d011682016040523d82523d6000602084013e610c90565b606091505b5050905080610cd4576040517f08c379a0000000000000000000000000000000000000000000000000000000008152600401610ccb90611b06565b60405180910390fd5b50505050565b828054610ce6906116ef565b90600052602060002090601f016020900481019282610d085760008555610d4f565b82601f10610d2157805160ff1916838001178555610d4f565b82800160010185558215610d4f579182015b82811115610d4e578251825591602001919060010190610d33565b5b509050610d5c9190610dc2565b5090565b604051806101200160405280600073ffffffffffffffffffffffffffffffffffffffff16815260200160608152602001606081526020016000815260200160008152602001600081526020016060815260200160608152602001606081525090565b5b80821115610ddb576000816000905550600101610dc3565b5090565b6000819050919050565b610df281610ddf565b82525050565b6000602082019050610e0d6000830184610de9565b92915050565b6000604051905090565b600080fd5b600080fd5b610e3081610ddf565b8114610e3b57600080fd5b50565b600081359050610e4d81610e27565b92915050565b600060208284031215610e6957610e68610e1d565b5b6000610e7784828501610e3e565b91505092915050565b600081519050919050565b600082825260208201905092915050565b6000819050602082019050919050565b600073ffffffffffffffffffffffffffffffffffffffff82169050919050565b6000610ed782610eac565b9050919050565b610ee781610ecc565b82525050565b6000610ef98383610ede565b60208301905092915050565b6000602082019050919050565b6000610f1d82610e80565b610f278185610e8b565b9350610f3283610e9c565b8060005b83811015610f63578151610f4a8882610eed565b9750610f5583610f05565b925050600181019050610f36565b5085935050505092915050565b600081519050919050565b600082825260208201905092915050565b6000819050602082019050919050565b610fa581610ddf565b82525050565b6000610fb78383610f9c565b60208301905092915050565b6000602082019050919050565b6000610fdb82610f70565b610fe58185610f7b565b9350610ff083610f8c565b8060005b838110156110215781516110088882610fab565b975061101383610fc3565b925050600181019050610ff4565b5085935050505092915050565b600060408201905081810360008301526110488185610f12565b9050818103602083015261105c8184610fd0565b90509392505050565b61106e81610ecc565b82525050565b600081519050919050565b600082825260208201905092915050565b60005b838110156110ae578082015181840152602081019050611093565b838111156110bd576000848401525b50505050565b6000601f19601f8301169050919050565b60006110df82611074565b6110e9818561107f565b93506110f9818560208601611090565b611102816110c3565b840191505092915050565b600060e082019050611122600083018a611065565b818103602083015261113481896110d4565b9050818103604083015261114881886110d4565b90506111576060830187610de9565b6111646080830186610de9565b61117160a0830185610de9565b81810360c083015261118381846110d4565b905098975050505050505050565b61119a81610ecc565b81146111a557600080fd5b50565b6000813590506111b781611191565b92915050565b600080fd5b600080fd5b7f4e487b7100000000000000000000000000000000000000000000000000000000600052604160045260246000fd5b6111ff826110c3565b810181811067ffffffffffffffff8211171561121e5761121d6111c7565b5b80604052505050565b6000611231610e13565b905061123d82826111f6565b919050565b600067ffffffffffffffff82111561125d5761125c6111c7565b5b611266826110c3565b9050602081019050919050565b82818337600083830152505050565b600061129561129084611242565b611227565b9050828152602081018484840111156112b1576112b06111c2565b5b6112bc848285611273565b509392505050565b600082601f8301126112d9576112d86111bd565b5b81356112e9848260208601611282565b91505092915050565b60008060008060008060c0878903121561130f5761130e610e1d565b5b600061131d89828a016111a8565b965050602087013567ffffffffffffffff81111561133e5761133d610e22565b5b61134a89828a016112c4565b955050604087013567ffffffffffffffff81111561136b5761136a610e22565b5b61137789828a016112c4565b945050606061138889828a01610e3e565b935050608061139989828a01610e3e565b92505060a087013567ffffffffffffffff8111156113ba576113b9610e22565b5b6113c689828a016112c4565b9150509295509295509295565b600081519050919050565b600082825260208201905092915050565b6000819050602082019050919050565b600082825260208201905092915050565b600061141b82611074565b61142581856113ff565b9350611435818560208601611090565b61143e816110c3565b840191505092915050565b600082825260208201905092915050565b600061146582610e80565b61146f8185611449565b935061147a83610e9c565b8060005b838110156114ab5781516114928882610eed565b975061149d83610f05565b92505060018101905061147e565b5085935050505092915050565b600082825260208201905092915050565b60006114d482610f70565b6114de81856114b8565b93506114e983610f8c565b8060005b8381101561151a5781516115018882610fab565b975061150c83610fc3565b9250506001810190506114ed565b5085935050505092915050565b6000610120830160008301516115406000860182610ede565b50602083015184820360208601526115588282611410565b915050604083015184820360408601526115728282611410565b91505060608301516115876060860182610f9c565b50608083015161159a6080860182610f9c565b5060a08301516115ad60a0860182610f9c565b5060c083015184820360c08601526115c58282611410565b91505060e083015184820360e08601526115df828261145a565b9150506101008301518482036101008601526115fb82826114c9565b9150508091505092915050565b60006116148383611527565b905092915050565b6000602082019050919050565b6000611634826113d3565b61163e81856113de565b935083602082028501611650856113ef565b8060005b8581101561168c578484038952815161166d8582611608565b94506116788361161c565b925060208a01995050600181019050611654565b50829750879550505050505092915050565b600060208201905081810360008301526116b88184611629565b905092915050565b7f4e487b7100000000000000000000000000000000000000000000000000000000600052602260045260246000fd5b6000600282049050600182168061170757607f821691505b6020821081141561171b5761171a6116c0565b5b50919050565b7f4e487b7100000000000000000000000000000000000000000000000000000000600052601160045260246000fd5b600061175b82610ddf565b915061176683610ddf565b9250827fffffffffffffffffffffffffffffffffffffffffffffffffffffffffffffffff0382111561179b5761179a611721565b5b828201905092915050565b7f54686520646561646c696e652073686f756c642062652061206461746520696e60008201527f20746865206675747572652e0000000000000000000000000000000000000000602082015250565b6000611802602c8361107f565b915061180d826117a6565b604082019050919050565b60006020820190508181036000830152611831816117f5565b9050919050565b600061184382610ddf565b91507fffffffffffffffffffffffffffffffffffffffffffffffffffffffffffffffff82141561187657611875611721565b5b600182019050919050565b600061188c82610ddf565b915061189783610ddf565b9250828210156118aa576118a9611721565b5b828203905092915050565b7f4e487b7100000000000000000000000000000000000000000000000000000000600052603260045260246000fd5b7f4f6e6c79207468652063616d706169676e206f776e65722063616e207769746860008201527f647261772066756e647300000000000000000000000000000000000000000000602082015250565b6000611940602a8361107f565b915061194b826118e4565b604082019050919050565b6000602082019050818103600083015261196f81611933565b9050919050565b7f43616d706169676e20686173206e6f742079657420656e646564000000000000600082015250565b60006119ac601a8361107f565b91506119b782611976565b602082019050919050565b600060208201905081810360008301526119db8161199f565b9050919050565b7f43616d706169676e20746172676574206e6f7420726561636865640000000000600082015250565b6000611a18601b8361107f565b9150611a23826119e2565b602082019050919050565b60006020820190508181036000830152611a4781611a0b565b9050919050565b600081905092915050565b50565b6000611a69600083611a4e565b9150611a7482611a59565b600082019050919050565b6000611a8a82611a5c565b9150819050919050565b7f4661696c656420746f2073656e642066756e647320746f207468652063616d7060008201527f6169676e206f776e657200000000000000000000000000000000000000000000602082015250565b6000611af0602a8361107f565b9150611afb82611a94565b604082019050919050565b60006020820190508181036000830152611b1f81611ae3565b905091905056fea26469706673582212206a61130979a15451dd1d6f93da08d6e380013343a853efbae450c5d5eac470fa64736f6c634300080b0033",
  "linkReferences": {},
  "deployedLinkReferences": {}
}