{
  "_format": "hh-sol-artifact-1",
  "contractName": "Fundly",
  "sourceName": "contracts/Fundly.sol",
  "abi": [
    {
      "inputs": [],
      "stateMutability": "nonpayable",
      "type": "constructor"
    },
    {
      "anonymous": false,
      "inputs": [
        {
          "indexed": false,
          "internalType": "uint256",
          "name": "campaignId",
          "type": "uint256"
        },
        {
          "indexed": true,
          "internalType": "address",
          "name": "owner",
          "type": "address"
        },
        {
          "indexed": false,
          "internalType": "string",
          "name": "title",
          "type": "string"
        }
      ],
      "name": "CampaignCreated",
      "type": "event"
    },
    {
      "anonymous": false,
      "inputs": [
        {
          "indexed": true,
          "internalType": "address",
          "name": "user",
          "type": "address"
        }
      ],
      "name": "VerificationRequested",
      "type": "event"
    },
    {
      "anonymous": false,
      "inputs": [
        {
          "indexed": true,
          "internalType": "address",
          "name": "user",
          "type": "address"
        },
        {
          "indexed": false,
          "internalType": "enum Fundly.VerificationStatus",
          "name": "status",
          "type": "uint8"
        }
      ],
      "name": "VerificationStatusChanged",
      "type": "event"
    },
    {
      "inputs": [
        {
          "internalType": "uint256",
          "name": "",
          "type": "uint256"
        }
      ],
      "name": "campaigns",
      "outputs": [
        {
          "internalType": "address",
          "name": "owner",
          "type": "address"
        },
        {
          "internalType": "string",
          "name": "title",
          "type": "string"
        },
        {
          "internalType": "string",
          "name": "description",
          "type": "string"
        },
        {
          "internalType": "uint256",
          "name": "target",
          "type": "uint256"
        },
        {
          "internalType": "uint256",
          "name": "deadline",
          "type": "uint256"
        },
        {
          "internalType": "uint256",
          "name": "amountCollected",
          "type": "uint256"
        },
        {
          "internalType": "string",
          "name": "image",
          "type": "string"
        },
        {
          "internalType": "bool",
          "name": "paidOut",
          "type": "bool"
        }
      ],
      "stateMutability": "view",
      "type": "function"
    },
    {
      "inputs": [
        {
          "internalType": "address",
          "name": "_owner",
          "type": "address"
        },
        {
          "internalType": "string",
          "name": "_title",
          "type": "string"
        },
        {
          "internalType": "string",
          "name": "_description",
          "type": "string"
        },
        {
          "internalType": "uint256",
          "name": "_target",
          "type": "uint256"
        },
        {
          "internalType": "uint256",
          "name": "_deadline",
          "type": "uint256"
        },
        {
          "internalType": "string",
          "name": "_image",
          "type": "string"
        }
      ],
      "name": "createCampaign",
      "outputs": [
        {
          "internalType": "uint256",
          "name": "",
          "type": "uint256"
        }
      ],
      "stateMutability": "nonpayable",
      "type": "function"
    },
    {
      "inputs": [
        {
          "internalType": "uint256",
          "name": "_id",
          "type": "uint256"
        }
      ],
      "name": "donateCampaign",
      "outputs": [],
      "stateMutability": "payable",
      "type": "function"
    },
    {
      "inputs": [],
      "name": "getCampaigns",
      "outputs": [
        {
          "components": [
            {
              "internalType": "address",
              "name": "owner",
              "type": "address"
            },
            {
              "internalType": "string",
              "name": "title",
              "type": "string"
            },
            {
              "internalType": "string",
              "name": "description",
              "type": "string"
            },
            {
              "internalType": "uint256",
              "name": "target",
              "type": "uint256"
            },
            {
              "internalType": "uint256",
              "name": "deadline",
              "type": "uint256"
            },
            {
              "internalType": "uint256",
              "name": "amountCollected",
              "type": "uint256"
            },
            {
              "internalType": "string",
              "name": "image",
              "type": "string"
            },
            {
              "internalType": "bool",
              "name": "paidOut",
              "type": "bool"
            },
            {
              "internalType": "address[]",
              "name": "donators",
              "type": "address[]"
            },
            {
              "internalType": "uint256[]",
              "name": "donations",
              "type": "uint256[]"
            }
          ],
          "internalType": "struct Fundly.Campaign[]",
          "name": "",
          "type": "tuple[]"
        }
      ],
      "stateMutability": "view",
      "type": "function"
    },
    {
      "inputs": [
        {
          "internalType": "uint256",
          "name": "_id",
          "type": "uint256"
        }
      ],
      "name": "getDonators",
      "outputs": [
        {
          "internalType": "address[]",
          "name": "",
          "type": "address[]"
        },
        {
          "internalType": "uint256[]",
          "name": "",
          "type": "uint256[]"
        }
      ],
      "stateMutability": "view",
      "type": "function"
    },
    {
      "inputs": [],
      "name": "getPendingVerificationRequests",
      "outputs": [
        {
          "internalType": "address[]",
          "name": "",
          "type": "address[]"
        }
      ],
      "stateMutability": "view",
      "type": "function"
    },
    {
      "inputs": [
        {
          "internalType": "address",
          "name": "_user",
          "type": "address"
        }
      ],
      "name": "getUserVerificationStatus",
      "outputs": [
        {
          "internalType": "enum Fundly.VerificationStatus",
          "name": "",
          "type": "uint8"
        }
      ],
      "stateMutability": "view",
      "type": "function"
    },
    {
      "inputs": [
        {
          "internalType": "address",
          "name": "_user",
          "type": "address"
        }
      ],
      "name": "isUserVerified",
      "outputs": [
        {
          "internalType": "bool",
          "name": "",
          "type": "bool"
        }
      ],
      "stateMutability": "view",
      "type": "function"
    },
    {
      "inputs": [],
      "name": "numberOfCampaigns",
      "outputs": [
        {
          "internalType": "uint256",
          "name": "",
          "type": "uint256"
        }
      ],
      "stateMutability": "view",
      "type": "function"
    },
    {
      "inputs": [],
      "name": "owner",
      "outputs": [
        {
          "internalType": "address",
          "name": "",
          "type": "address"
        }
      ],
      "stateMutability": "view",
      "type": "function"
    },
    {
      "inputs": [
        {
          "internalType": "uint256",
          "name": "_id",
          "type": "uint256"
        }
      ],
      "name": "payout",
      "outputs": [],
      "stateMutability": "nonpayable",
      "type": "function"
    },
    {
      "inputs": [
        {
          "internalType": "address",
          "name": "_user",
          "type": "address"
        }
      ],
      "name": "rejectUser",
      "outputs": [],
      "stateMutability": "nonpayable",
      "type": "function"
    },
    {
      "inputs": [
        {
          "internalType": "string",
          "name": "_documentHash",
          "type": "string"
        },
        {
          "internalType": "string",
          "name": "_nameHash",
          "type": "string"
        }
      ],
      "name": "submitVerificationDocument",
      "outputs": [],
      "stateMutability": "nonpayable",
      "type": "function"
    },
    {
      "inputs": [
        {
          "internalType": "address",
          "name": "",
          "type": "address"
        }
      ],
      "name": "verificationDocuments",
      "outputs": [
        {
          "internalType": "string",
          "name": "documentHash",
          "type": "string"
        },
        {
          "internalType": "string",
          "name": "nameHash",
          "type": "string"
        },
        {
          "internalType": "enum Fundly.VerificationStatus",
          "name": "status",
          "type": "uint8"
        },
        {
          "internalType": "bool",
          "name": "exists",
          "type": "bool"
        }
      ],
      "stateMutability": "view",
      "type": "function"
    },
    {
      "inputs": [
        {
          "internalType": "uint256",
          "name": "",
          "type": "uint256"
        }
      ],
      "name": "verificationRequestsList",
      "outputs": [
        {
          "internalType": "address",
          "name": "",
          "type": "address"
        }
      ],
      "stateMutability": "view",
      "type": "function"
    },
    {
      "inputs": [
        {
          "internalType": "address",
          "name": "_user",
          "type": "address"
        }
      ],
      "name": "verifyUser",
      "outputs": [],
      "stateMutability": "nonpayable",
      "type": "function"
    }
  ],
  "bytecode": "0x60806040526000600255348015601457600080fd5b5033600360006101000a81548173ffffffffffffffffffffffffffffffffffffffff021916908373ffffffffffffffffffffffffffffffffffffffff160217905550612e42806100656000396000f3fe6080604052600436106100f35760003560e01c80638da5cb5b1161008a578063a6b0363311610059578063a6b036331461035e578063ace417e014610389578063d0ba3b7f146103c6578063e1152343146103f1576100f3565b80638da5cb5b1461029d5780638ffff8b0146102c857806390e13f4c146102e45780639943e3a114610321576100f3565b8063358fd8c0116100c6578063358fd8c0146101e55780634a729e42146102225780634d8131201461024b5780634dc9288514610274576100f3565b806307ca140d146100f85780630fa91fa91461012357806311036e8514610161578063141961bc146101a1575b600080fd5b34801561010457600080fd5b5061010d61041a565b60405161011a9190611b19565b60405180910390f35b34801561012f57600080fd5b5061014a60048036038101906101459190611b74565b610420565b604051610158929190611d4f565b60405180910390f35b34801561016d57600080fd5b5061018860048036038101906101839190611db2565b610530565b6040516101989493929190611f01565b60405180910390f35b3480156101ad57600080fd5b506101c860048036038101906101c39190611b74565b61068a565b6040516101dc989796959493929190611f63565b60405180910390f35b3480156101f157600080fd5b5061020c60048036038101906102079190611db2565b610897565b6040516102199190611ff6565b60405180910390f35b34801561022e57600080fd5b5061024960048036038101906102449190612146565b6108f0565b005b34801561025757600080fd5b50610272600480360381019061026d9190611db2565b610bfb565b005b34801561028057600080fd5b5061029b60048036038101906102969190611db2565b610d6e565b005b3480156102a957600080fd5b506102b2610ee1565b6040516102bf91906121be565b60405180910390f35b6102e260048036038101906102dd9190611b74565b610f07565b005b3480156102f057600080fd5b5061030b60048036038101906103069190611b74565b610fd2565b60405161031891906121be565b60405180910390f35b34801561032d57600080fd5b50610348600480360381019061034391906121d9565b611011565b6040516103559190611b19565b60405180910390f35b34801561036a57600080fd5b50610373611135565b60405161038091906125a9565b60405180910390f35b34801561039557600080fd5b506103b060048036038101906103ab9190611db2565b611520565b6040516103bd91906125cb565b60405180910390f35b3480156103d257600080fd5b506103db6115a0565b6040516103e891906125e6565b60405180910390f35b3480156103fd57600080fd5b5061041860048036038101906104139190611b74565b611852565b005b60025481565b606080600080848152602001908152602001600020600801600080858152602001908152602001600020600901818054806020026020016040519081016040528092919081815260200182805480156104ce57602002820191906000526020600020905b8160009054906101000a900473ffffffffffffffffffffffffffffffffffffffff1673ffffffffffffffffffffffffffffffffffffffff1681526020019060010190808311610484575b505050505091508080548060200260200160405190810160405280929190818152602001828054801561052057602002820191906000526020600020905b81548152602001906001019080831161050c575b5050505050905091509150915091565b600160205280600052604060002060009150905080600001805461055390612637565b80601f016020809104026020016040519081016040528092919081815260200182805461057f90612637565b80156105cc5780601f106105a1576101008083540402835291602001916105cc565b820191906000526020600020905b8154815290600101906020018083116105af57829003601f168201915b5050505050908060010180546105e190612637565b80601f016020809104026020016040519081016040528092919081815260200182805461060d90612637565b801561065a5780601f1061062f5761010080835404028352916020019161065a565b820191906000526020600020905b81548152906001019060200180831161063d57829003601f168201915b5050505050908060020160009054906101000a900460ff16908060020160019054906101000a900460ff16905084565b60006020528060005260406000206000915090508060000160009054906101000a900473ffffffffffffffffffffffffffffffffffffffff16908060010180546106d390612637565b80601f01602080910402602001604051908101604052809291908181526020018280546106ff90612637565b801561074c5780601f106107215761010080835404028352916020019161074c565b820191906000526020600020905b81548152906001019060200180831161072f57829003601f168201915b50505050509080600201805461076190612637565b80601f016020809104026020016040519081016040528092919081815260200182805461078d90612637565b80156107da5780601f106107af576101008083540402835291602001916107da565b820191906000526020600020905b8154815290600101906020018083116107bd57829003601f168201915b50505050509080600301549080600401549080600501549080600601805461080190612637565b80601f016020809104026020016040519081016040528092919081815260200182805461082d90612637565b801561087a5780601f1061084f5761010080835404028352916020019161087a565b820191906000526020600020905b81548152906001019060200180831161085d57829003601f168201915b5050505050908060070160009054906101000a900460ff16905088565b6000600160008373ffffffffffffffffffffffffffffffffffffffff1673ffffffffffffffffffffffffffffffffffffffff16815260200190815260200160002060020160009054906101000a900460ff169050919050565b6002600381111561090457610903611e6f565b5b600160003373ffffffffffffffffffffffffffffffffffffffff1673ffffffffffffffffffffffffffffffffffffffff16815260200190815260200160002060020160009054906101000a900460ff16600381111561096657610965611e6f565b5b036109a6576040517f08c379a000000000000000000000000000000000000000000000000000000000815260040161099d906126b4565b60405180910390fd5b600160038111156109ba576109b9611e6f565b5b600160003373ffffffffffffffffffffffffffffffffffffffff1673ffffffffffffffffffffffffffffffffffffffff16815260200190815260200160002060020160009054906101000a900460ff166003811115610a1c57610a1b611e6f565b5b03610a5c576040517f08c379a0000000000000000000000000000000000000000000000000000000008152600401610a5390612720565b60405180910390fd5b604051806080016040528083815260200182815260200160016003811115610a8757610a86611e6f565b5b815260200160011515815250600160003373ffffffffffffffffffffffffffffffffffffffff1673ffffffffffffffffffffffffffffffffffffffff1681526020019081526020016000206000820151816000019081610ae791906128ec565b506020820151816001019081610afd91906128ec565b5060408201518160020160006101000a81548160ff02191690836003811115610b2957610b28611e6f565b5b021790555060608201518160020160016101000a81548160ff0219169083151502179055509050506004339080600181540180825580915050600190039060005260206000200160009091909190916101000a81548173ffffffffffffffffffffffffffffffffffffffff021916908373ffffffffffffffffffffffffffffffffffffffff1602179055503373ffffffffffffffffffffffffffffffffffffffff167f097b4e5f25166444d64b5b26d3d715fab4cdd93e57d2391fd8fc82ab6fff137e60405160405180910390a25050565b60016003811115610c0f57610c0e611e6f565b5b600160008373ffffffffffffffffffffffffffffffffffffffff1673ffffffffffffffffffffffffffffffffffffffff16815260200190815260200160002060020160009054906101000a900460ff166003811115610c7157610c70611e6f565b5b14610cb1576040517f08c379a0000000000000000000000000000000000000000000000000000000008152600401610ca890612a0a565b60405180910390fd5b6002600160008373ffffffffffffffffffffffffffffffffffffffff1673ffffffffffffffffffffffffffffffffffffffff16815260200190815260200160002060020160006101000a81548160ff02191690836003811115610d1757610d16611e6f565b5b02179055508073ffffffffffffffffffffffffffffffffffffffff167fc64fb3c0e81b06643c1b073c3af5437acd6a5d9986c32cce9fd2682b4c264a156002604051610d639190611ff6565b60405180910390a250565b60016003811115610d8257610d81611e6f565b5b600160008373ffffffffffffffffffffffffffffffffffffffff1673ffffffffffffffffffffffffffffffffffffffff16815260200190815260200160002060020160009054906101000a900460ff166003811115610de457610de3611e6f565b5b14610e24576040517f08c379a0000000000000000000000000000000000000000000000000000000008152600401610e1b90612a0a565b60405180910390fd5b6003600160008373ffffffffffffffffffffffffffffffffffffffff1673ffffffffffffffffffffffffffffffffffffffff16815260200190815260200160002060020160006101000a81548160ff02191690836003811115610e8a57610e89611e6f565b5b02179055508073ffffffffffffffffffffffffffffffffffffffff167fc64fb3c0e81b06643c1b073c3af5437acd6a5d9986c32cce9fd2682b4c264a156003604051610ed69190611ff6565b60405180910390a250565b600360009054906101000a900473ffffffffffffffffffffffffffffffffffffffff1681565b60003490506000806000848152602001908152602001600020905080600801339080600181540180825580915050600190039060005260206000200160009091909190916101000a81548173ffffffffffffffffffffffffffffffffffffffff021916908373ffffffffffffffffffffffffffffffffffffffff1602179055508060090182908060018154018082558091505060019003906000526020600020016000909190919091505581816005016000828254610fc69190612a59565b92505081905550505050565b60048181548110610fe257600080fd5b906000526020600020016000915054906101000a900473ffffffffffffffffffffffffffffffffffffffff1681565b6000806000806002548152602001908152602001600020905042841161106c576040517f08c379a000000000000000000000000000000000000000000000000000000000815260040161106390612aff565b60405180910390fd5b878160000160006101000a81548173ffffffffffffffffffffffffffffffffffffffff021916908373ffffffffffffffffffffffffffffffffffffffff160217905550868160010190816110c091906128ec565b50858160020190816110d291906128ec565b50848160030181905550838160040181905550600081600501819055508281600601908161110091906128ec565b506002600081548092919061111490612b1f565b919050555060016002546111289190612b67565b9150509695505050505050565b6060600060025467ffffffffffffffff8111156111555761115461201b565b5b60405190808252806020026020018201604052801561118e57816020015b61117b611a95565b8152602001906001900390816111735790505b50905060005b600254811015611518576000806000838152602001908152602001600020905080604051806101400160405290816000820160009054906101000a900473ffffffffffffffffffffffffffffffffffffffff1673ffffffffffffffffffffffffffffffffffffffff1673ffffffffffffffffffffffffffffffffffffffff16815260200160018201805461122790612637565b80601f016020809104026020016040519081016040528092919081815260200182805461125390612637565b80156112a05780601f10611275576101008083540402835291602001916112a0565b820191906000526020600020905b81548152906001019060200180831161128357829003601f168201915b505050505081526020016002820180546112b990612637565b80601f01602080910402602001604051908101604052809291908181526020018280546112e590612637565b80156113325780601f1061130757610100808354040283529160200191611332565b820191906000526020600020905b81548152906001019060200180831161131557829003601f168201915b5050505050815260200160038201548152602001600482015481526020016005820154815260200160068201805461136990612637565b80601f016020809104026020016040519081016040528092919081815260200182805461139590612637565b80156113e25780601f106113b7576101008083540402835291602001916113e2565b820191906000526020600020905b8154815290600101906020018083116113c557829003601f168201915b505050505081526020016007820160009054906101000a900460ff161515151581526020016008820180548060200260200160405190810160405280929190818152602001828054801561148b57602002820191906000526020600020905b8160009054906101000a900473ffffffffffffffffffffffffffffffffffffffff1673ffffffffffffffffffffffffffffffffffffffff1681526020019060010190808311611441575b50505050508152602001600982018054806020026020016040519081016040528092919081815260200182805480156114e357602002820191906000526020600020905b8154815260200190600101908083116114cf575b5050505050815250508383815181106114ff576114fe612b9b565b5b6020026020010181905250508080600101915050611194565b508091505090565b60006002600381111561153657611535611e6f565b5b600160008473ffffffffffffffffffffffffffffffffffffffff1673ffffffffffffffffffffffffffffffffffffffff16815260200190815260200160002060020160009054906101000a900460ff16600381111561159857611597611e6f565b5b149050919050565b60606000805b60048054905081101561168857600160038111156115c7576115c6611e6f565b5b60016000600484815481106115df576115de612b9b565b5b9060005260206000200160009054906101000a900473ffffffffffffffffffffffffffffffffffffffff1673ffffffffffffffffffffffffffffffffffffffff1673ffffffffffffffffffffffffffffffffffffffff16815260200190815260200160002060020160009054906101000a900460ff16600381111561166757611666611e6f565b5b0361167b57818061167790612b1f565b9250505b80806001019150506115a6565b5060008167ffffffffffffffff8111156116a5576116a461201b565b5b6040519080825280602002602001820160405280156116d35781602001602082028036833780820191505090505b5090506000805b60048054905081101561184857600160038111156116fb576116fa611e6f565b5b600160006004848154811061171357611712612b9b565b5b9060005260206000200160009054906101000a900473ffffffffffffffffffffffffffffffffffffffff1673ffffffffffffffffffffffffffffffffffffffff1673ffffffffffffffffffffffffffffffffffffffff16815260200190815260200160002060020160009054906101000a900460ff16600381111561179b5761179a611e6f565b5b0361183b57600481815481106117b4576117b3612b9b565b5b9060005260206000200160009054906101000a900473ffffffffffffffffffffffffffffffffffffffff168383815181106117f2576117f1612b9b565b5b602002602001019073ffffffffffffffffffffffffffffffffffffffff16908173ffffffffffffffffffffffffffffffffffffffff1681525050818061183790612b1f565b9250505b80806001019150506116da565b5081935050505090565b600080600083815260200190815260200160002090508060000160009054906101000a900473ffffffffffffffffffffffffffffffffffffffff1673ffffffffffffffffffffffffffffffffffffffff163373ffffffffffffffffffffffffffffffffffffffff16146118fa576040517f08c379a00000000000000000000000000000000000000000000000000000000081526004016118f190612c3c565b60405180910390fd5b8060070160009054906101000a900460ff161561194c576040517f08c379a000000000000000000000000000000000000000000000000000000000815260040161194390612ca8565b60405180910390fd5b60008160050154905060008111611998576040517f08c379a000000000000000000000000000000000000000000000000000000000815260040161198f90612d14565b60405180910390fd5b6000826005018190555060018260070160006101000a81548160ff02191690831515021790555060008260000160009054906101000a900473ffffffffffffffffffffffffffffffffffffffff1673ffffffffffffffffffffffffffffffffffffffff1682604051611a0990612d65565b60006040518083038185875af1925050503d8060008114611a46576040519150601f19603f3d011682016040523d82523d6000602084013e611a4b565b606091505b5050905080611a8f576040517f08c379a0000000000000000000000000000000000000000000000000000000008152600401611a8690612dec565b60405180910390fd5b50505050565b604051806101400160405280600073ffffffffffffffffffffffffffffffffffffffff16815260200160608152602001606081526020016000815260200160008152602001600081526020016060815260200160001515815260200160608152602001606081525090565b6000819050919050565b611b1381611b00565b82525050565b6000602082019050611b2e6000830184611b0a565b92915050565b6000604051905090565b600080fd5b600080fd5b611b5181611b00565b8114611b5c57600080fd5b50565b600081359050611b6e81611b48565b92915050565b600060208284031215611b8a57611b89611b3e565b5b6000611b9884828501611b5f565b91505092915050565b600081519050919050565b600082825260208201905092915050565b6000819050602082019050919050565b600073ffffffffffffffffffffffffffffffffffffffff82169050919050565b6000611bf882611bcd565b9050919050565b611c0881611bed565b82525050565b6000611c1a8383611bff565b60208301905092915050565b6000602082019050919050565b6000611c3e82611ba1565b611c488185611bac565b9350611c5383611bbd565b8060005b83811015611c84578151611c6b8882611c0e565b9750611c7683611c26565b925050600181019050611c57565b5085935050505092915050565b600081519050919050565b600082825260208201905092915050565b6000819050602082019050919050565b611cc681611b00565b82525050565b6000611cd88383611cbd565b60208301905092915050565b6000602082019050919050565b6000611cfc82611c91565b611d068185611c9c565b9350611d1183611cad565b8060005b83811015611d42578151611d298882611ccc565b9750611d3483611ce4565b925050600181019050611d15565b5085935050505092915050565b60006040820190508181036000830152611d698185611c33565b90508181036020830152611d7d8184611cf1565b90509392505050565b611d8f81611bed565b8114611d9a57600080fd5b50565b600081359050611dac81611d86565b92915050565b600060208284031215611dc857611dc7611b3e565b5b6000611dd684828501611d9d565b91505092915050565b600081519050919050565b600082825260208201905092915050565b60005b83811015611e19578082015181840152602081019050611dfe565b60008484015250505050565b6000601f19601f8301169050919050565b6000611e4182611ddf565b611e4b8185611dea565b9350611e5b818560208601611dfb565b611e6481611e25565b840191505092915050565b7f4e487b7100000000000000000000000000000000000000000000000000000000600052602160045260246000fd5b60048110611eaf57611eae611e6f565b5b50565b6000819050611ec082611e9e565b919050565b6000611ed082611eb2565b9050919050565b611ee081611ec5565b82525050565b60008115159050919050565b611efb81611ee6565b82525050565b60006080820190508181036000830152611f1b8187611e36565b90508181036020830152611f2f8186611e36565b9050611f3e6040830185611ed7565b611f4b6060830184611ef2565b95945050505050565b611f5d81611bed565b82525050565b600061010082019050611f79600083018b611f54565b8181036020830152611f8b818a611e36565b90508181036040830152611f9f8189611e36565b9050611fae6060830188611b0a565b611fbb6080830187611b0a565b611fc860a0830186611b0a565b81810360c0830152611fda8185611e36565b9050611fe960e0830184611ef2565b9998505050505050505050565b600060208201905061200b6000830184611ed7565b92915050565b600080fd5b600080fd5b7f4e487b7100000000000000000000000000000000000000000000000000000000600052604160045260246000fd5b61205382611e25565b810181811067ffffffffffffffff821117156120725761207161201b565b5b80604052505050565b6000612085611b34565b9050612091828261204a565b919050565b600067ffffffffffffffff8211156120b1576120b061201b565b5b6120ba82611e25565b9050602081019050919050565b82818337600083830152505050565b60006120e96120e484612096565b61207b565b90508281526020810184848401111561210557612104612016565b5b6121108482856120c7565b509392505050565b600082601f83011261212d5761212c612011565b5b813561213d8482602086016120d6565b91505092915050565b6000806040838503121561215d5761215c611b3e565b5b600083013567ffffffffffffffff81111561217b5761217a611b43565b5b61218785828601612118565b925050602083013567ffffffffffffffff8111156121a8576121a7611b43565b5b6121b485828601612118565b9150509250929050565b60006020820190506121d36000830184611f54565b92915050565b60008060008060008060c087890312156121f6576121f5611b3e565b5b600061220489828a01611d9d565b965050602087013567ffffffffffffffff81111561222557612224611b43565b5b61223189828a01612118565b955050604087013567ffffffffffffffff81111561225257612251611b43565b5b61225e89828a01612118565b945050606061226f89828a01611b5f565b935050608061228089828a01611b5f565b92505060a087013567ffffffffffffffff8111156122a1576122a0611b43565b5b6122ad89828a01612118565b9150509295509295509295565b600081519050919050565b600082825260208201905092915050565b6000819050602082019050919050565b600082825260208201905092915050565b600061230282611ddf565b61230c81856122e6565b935061231c818560208601611dfb565b61232581611e25565b840191505092915050565b61233981611ee6565b82525050565b600082825260208201905092915050565b600061235b82611ba1565b612365818561233f565b935061237083611bbd565b8060005b838110156123a15781516123888882611c0e565b975061239383611c26565b925050600181019050612374565b5085935050505092915050565b600082825260208201905092915050565b60006123ca82611c91565b6123d481856123ae565b93506123df83611cad565b8060005b838110156124105781516123f78882611ccc565b975061240283611ce4565b9250506001810190506123e3565b5085935050505092915050565b6000610140830160008301516124366000860182611bff565b506020830151848203602086015261244e82826122f7565b9150506040830151848203604086015261246882826122f7565b915050606083015161247d6060860182611cbd565b5060808301516124906080860182611cbd565b5060a08301516124a360a0860182611cbd565b5060c083015184820360c08601526124bb82826122f7565b91505060e08301516124d060e0860182612330565b506101008301518482036101008601526124ea8282612350565b91505061012083015184820361012086015261250682826123bf565b9150508091505092915050565b600061251f838361241d565b905092915050565b6000602082019050919050565b600061253f826122ba565b61254981856122c5565b93508360208202850161255b856122d6565b8060005b8581101561259757848403895281516125788582612513565b945061258383612527565b925060208a0199505060018101905061255f565b50829750879550505050505092915050565b600060208201905081810360008301526125c38184612534565b905092915050565b60006020820190506125e06000830184611ef2565b92915050565b600060208201905081810360008301526126008184611c33565b905092915050565b7f4e487b7100000000000000000000000000000000000000000000000000000000600052602260045260246000fd5b6000600282049050600182168061264f57607f821691505b60208210810361266257612661612608565b5b50919050565b7f5573657220697320616c72656164792076657269666965640000000000000000600082015250565b600061269e601883611dea565b91506126a982612668565b602082019050919050565b600060208201905081810360008301526126cd81612691565b9050919050565b7f566572696669636174696f6e20616c72656164792070656e64696e6700000000600082015250565b600061270a601c83611dea565b9150612715826126d4565b602082019050919050565b60006020820190508181036000830152612739816126fd565b9050919050565b60008190508160005260206000209050919050565b60006020601f8301049050919050565b600082821b905092915050565b6000600883026127a27fffffffffffffffffffffffffffffffffffffffffffffffffffffffffffffffff82612765565b6127ac8683612765565b95508019841693508086168417925050509392505050565b6000819050919050565b60006127e96127e46127df84611b00565b6127c4565b611b00565b9050919050565b6000819050919050565b612803836127ce565b61281761280f826127f0565b848454612772565b825550505050565b600090565b61282c61281f565b6128378184846127fa565b505050565b5b8181101561285b57612850600082612824565b60018101905061283d565b5050565b601f8211156128a05761287181612740565b61287a84612755565b81016020851015612889578190505b61289d61289585612755565b83018261283c565b50505b505050565b600082821c905092915050565b60006128c3600019846008026128a5565b1980831691505092915050565b60006128dc83836128b2565b9150826002028217905092915050565b6128f582611ddf565b67ffffffffffffffff81111561290e5761290d61201b565b5b6129188254612637565b61292382828561285f565b600060209050601f8311600181146129565760008415612944578287015190505b61294e85826128d0565b8655506129b6565b601f19841661296486612740565b60005b8281101561298c57848901518255600182019150602085019450602081019050612967565b868310156129a957848901516129a5601f8916826128b2565b8355505b6001600288020188555050505b505050505050565b7f5573657220766572696669636174696f6e206973206e6f742070656e64696e67600082015250565b60006129f4602083611dea565b91506129ff826129be565b602082019050919050565b60006020820190508181036000830152612a23816129e7565b9050919050565b7f4e487b7100000000000000000000000000000000000000000000000000000000600052601160045260246000fd5b6000612a6482611b00565b9150612a6f83611b00565b9250828201905080821115612a8757612a86612a2a565b5b92915050565b7f54686520646561646c696e652073686f756c642062652061206461746520696e60008201527f20746865206675747572652e0000000000000000000000000000000000000000602082015250565b6000612ae9602c83611dea565b9150612af482612a8d565b604082019050919050565b60006020820190508181036000830152612b1881612adc565b9050919050565b6000612b2a82611b00565b91507fffffffffffffffffffffffffffffffffffffffffffffffffffffffffffffffff8203612b5c57612b5b612a2a565b5b600182019050919050565b6000612b7282611b00565b9150612b7d83611b00565b9250828203905081811115612b9557612b94612a2a565b5b92915050565b7f4e487b7100000000000000000000000000000000000000000000000000000000600052603260045260246000fd5b7f4f6e6c79207468652063616d706169676e206f776e65722063616e207769746860008201527f647261772066756e647300000000000000000000000000000000000000000000602082015250565b6000612c26602a83611dea565b9150612c3182612bca565b604082019050919050565b60006020820190508181036000830152612c5581612c19565b9050919050565b7f46756e647320616c72656164792077697468647261776e000000000000000000600082015250565b6000612c92601783611dea565b9150612c9d82612c5c565b602082019050919050565b60006020820190508181036000830152612cc181612c85565b9050919050565b7f4e6f2066756e647320746f207769746864726177000000000000000000000000600082015250565b6000612cfe601483611dea565b9150612d0982612cc8565b602082019050919050565b60006020820190508181036000830152612d2d81612cf1565b9050919050565b600081905092915050565b50565b6000612d4f600083612d34565b9150612d5a82612d3f565b600082019050919050565b6000612d7082612d42565b9150819050919050565b7f4661696c656420746f2073656e642066756e647320746f207468652063616d7060008201527f6169676e206f776e657200000000000000000000000000000000000000000000602082015250565b6000612dd6602a83611dea565b9150612de182612d7a565b604082019050919050565b60006020820190508181036000830152612e0581612dc9565b905091905056fea26469706673582212207490b0d5c3a9497b152f9d5fcd26b338f30170d56c79025d2af1e9b0aa7c498a64736f6c634300081b0033",
  "linkReferences": {},
  "deployedLinkReferences": {}
}